{
  "contractName": "ERC2771ContextMock",
  "abi": [
    {
      "inputs": [
        {
          "internalType": "address",
          "name": "trustedForwarder",
          "type": "address"
        }
      ],
      "stateMutability": "nonpayable",
      "type": "constructor"
    },
    {
      "inputs": [
        {
          "internalType": "address",
          "name": "forwarder",
          "type": "address"
        }
      ],
      "name": "isTrustedForwarder",
      "outputs": [
        {
          "internalType": "bool",
          "name": "",
          "type": "bool"
        }
      ],
      "stateMutability": "view",
      "type": "function"
    }
  ],
  "bytecode": "0x60a060405234801561001057600080fd5b506040516102d23803806102d283398181016040528101906100329190610086565b808073ffffffffffffffffffffffffffffffffffffffff1660808173ffffffffffffffffffffffffffffffffffffffff1660601b815250505050610101565b600081519050610080816100ea565b92915050565b60006020828403121561009c5761009b6100e5565b5b60006100aa84828501610071565b91505092915050565b60006100be826100c5565b9050919050565b600073ffffffffffffffffffffffffffffffffffffffff82169050919050565b600080fd5b6100f3816100b3565b81146100fe57600080fd5b50565b60805160601c6101b461011e6000396000606401526101b46000f3fe608060405234801561001057600080fd5b506004361061002b5760003560e01c8063572b6c0514610030575b600080fd5b61004a600480360381019061004591906100cd565b610060565b6040516100579190610109565b60405180910390f35b60007f000000000000000000000000000000000000000000000000000000000000000073ffffffffffffffffffffffffffffffffffffffff168273ffffffffffffffffffffffffffffffffffffffff16149050919050565b6000813590506100c781610167565b92915050565b6000602082840312156100e3576100e2610162565b5b60006100f1848285016100b8565b91505092915050565b61010381610136565b82525050565b600060208201905061011e60008301846100fa565b92915050565b600061012f82610142565b9050919050565b60008115159050919050565b600073ffffffffffffffffffffffffffffffffffffffff82169050919050565b600080fd5b61017081610124565b811461017b57600080fd5b5056fea264697066735822122073b4a7c6e4549d6fa688212ba6cf7d808cd7520f32a778c39d9b1da7b7671e1d64736f6c63430008050033",
  "immutableReferences": {
    "165": [
      {
        "length": 32,
        "start": 100
      }
    ]
  },
  "source": "// SPDX-License-Identifier: MIT\npragma solidity ^0.8.0;\n\nimport {\n    ERC2771Context\n} from \"@openzeppelin/contracts/metatx/ERC2771Context.sol\";\nimport \"@openzeppelin/contracts/utils/Context.sol\";\nimport \"@openzeppelin/contracts/token/ERC20/ERC20.sol\";\nimport \"@openzeppelin/contracts/token/ERC20/extensions/ERC20Burnable.sol\";\nimport \"@openzeppelin/contracts/security/Pausable.sol\";\nimport \"@openzeppelin/contracts/access/Ownable.sol\";\n\ncontract ERC2771ContextMock is Context, ERC2771Context {\n    constructor(address trustedForwarder) ERC2771Context(trustedForwarder) {}\n\n    function _msgSender() internal view virtual override(Context, ERC2771Context) returns (address) {\n        return ERC2771Context._msgSender();\n    }\n\n    function _msgData() internal view virtual override(Context, ERC2771Context) returns (bytes calldata) {\n        return ERC2771Context._msgData();\n    }\n}",
  "sourcePath": "/home/moonify/projects/love-coin/contracts/Love.sol",
  "compiler": {
    "name": "solc",
    "version": "0.8.5+commit.a4f2e591.Emscripten.clang"
  },
  "schemaVersion": "3.4.1",
  "updatedAt": "2021-06-13T14:58:23.345Z",
  "devdoc": {
    "kind": "dev",
    "methods": {},
    "version": 1
  },
  "userdoc": {
    "kind": "user",
    "methods": {},
    "version": 1
  }
}