{
  "contractName": "Love",
  "abi": [
    {
      "inputs": [],
      "stateMutability": "nonpayable",
      "type": "constructor"
    },
    {
      "inputs": [
        {
          "internalType": "address",
          "name": "forwarder",
          "type": "address"
        }
      ],
      "name": "isTrustedForwarder",
      "outputs": [
        {
          "internalType": "bool",
          "name": "",
          "type": "bool"
        }
      ],
      "stateMutability": "view",
      "type": "function"
    }
  ],
  "bytecode": "0x60a060405234801561001057600080fd5b50738a7320d4e9bca258e73f8ec61f4e4149f22f6f968073ffffffffffffffffffffffffffffffffffffffff1660808173ffffffffffffffffffffffffffffffffffffffff1660601b815250505060805160601c6101b461007b6000396000606401526101b46000f3fe608060405234801561001057600080fd5b506004361061002b5760003560e01c8063572b6c0514610030575b600080fd5b61004a600480360381019061004591906100cd565b610060565b6040516100579190610109565b60405180910390f35b60007f000000000000000000000000000000000000000000000000000000000000000073ffffffffffffffffffffffffffffffffffffffff168273ffffffffffffffffffffffffffffffffffffffff16149050919050565b6000813590506100c781610167565b92915050565b6000602082840312156100e3576100e2610162565b5b60006100f1848285016100b8565b91505092915050565b61010381610136565b82525050565b600060208201905061011e60008301846100fa565b92915050565b600061012f82610142565b9050919050565b60008115159050919050565b600073ffffffffffffffffffffffffffffffffffffffff82169050919050565b600080fd5b61017081610124565b811461017b57600080fd5b5056fea2646970667358221220fe2e2e09a49e4765472bb4dafa81006f2e0d2e8c974b7397312c18201965d29d64736f6c63430008050033",
  "immutableReferences": {
    "160": [
      {
        "length": 32,
        "start": 100
      }
    ]
  },
  "source": "// SPDX-License-Identifier: MIT\npragma solidity ^0.8.0;\n\nimport \"@openzeppelin/contracts/metatx/ERC2771Context.sol\";\nimport \"@openzeppelin/contracts/utils/Context.sol\";\nimport \"@openzeppelin/contracts/token/ERC20/ERC20.sol\";\nimport \"@openzeppelin/contracts/access/Ownable.sol\";\n\ncontract Love is Context,  ERC2771Context {\n    constructor() \n    ERC2771Context(0x8A7320D4E9bcA258E73f8ec61F4e4149f22f6F96)\n    {\n    }\n\n    function _msgSender() internal view virtual override(Context, ERC2771Context) returns (address) {\n        return ERC2771Context._msgSender();\n    }\n\n    function _msgData() internal view virtual override(Context, ERC2771Context) returns (bytes calldata) {\n        return ERC2771Context._msgData();\n    }\n}\n",
  "sourcePath": "/home/moonify/projects/love-coin/contracts/Love.sol",
  "compiler": {
    "name": "solc",
    "version": "0.8.5+commit.a4f2e591.Emscripten.clang"
  },
  "schemaVersion": "3.4.1",
  "updatedAt": "2021-06-13T15:19:49.106Z",
  "devdoc": {
    "kind": "dev",
    "methods": {},
    "version": 1
  },
  "userdoc": {
    "kind": "user",
    "methods": {},
    "version": 1
  }
}